S016000045787465726E616C5F54696D65722E737265636B
S11300000C943A000C9457000C9457000C9457002D
S11300100C9457000C9457000C9457000C94570000
S11300200C9457000C9457000C9457000C945700F0
S11300300C9457000C9457000C9457000C945700E0
S11300400C9457000C9457000C9457000C945700D0
S11300500C9457000C9457000C9457000C945700C0
S11300600C9457000C9457006364696E6F70737539
S113007078585B0011241FBECFEFD8E0DEBFCDBFA0
S113008011E0A0E0B1E0E6ECFEE002C005900D92C4
S1130090AA3FB107D9F722E0AAEFB1E001C01D924F
S11300A0A030B207E1F70E9486000C9461070C941B
S11300B000009091C00095FFFCCF8093C60080E0C3
S11300C090E008958091C0008823E4F78091C600F1
S11300D090E0089588E18093C10080E190E09093DE
S11300E0C5008093C400EAEFF1E08EE091E09383D1
S11300F0828380E091E0918380830895189B03C0FC
S113010081E090E0089580E090E00895CF93DF933C
S113011000D000D0CDB7DEB70E946A0080E88AB96B
S11301201BB814B881E085B981E090E09C838B838F
S11301308CE191E00E943801E12CF12C81E591E001
S11301400E9438018DE791E00E94380183EA91E032
S11301500E94380184EE91E09F938F930E942201C4
S11301608E010F5F1F4F1F930F9380EF91E09F93BA
S11301708F930E946801C8010E94380189810F9001
S11301800F900F900F900F900F90833619F08337D4
S113019039F404C0EE24E394F12C02C0E12CF12CD8
S11301A001E010E011C00E947E008C018BB18068D8
S11301B08BB985E08A95F1F700008BB18F778BB905
S11301C085E08A95F1F70000E114F10499F1011535
S11301D0110549F72FC0CE0103969F938F9383EFA8
S11301E091E09F938F930E9468018B819C810F9073
S11301F00F900F900F908130910521F48BB180689E
S11302008BB90AC0009721F48BB18F778BB904C0E6
S1130210059711F400E010E08C818F938B818F930C
S113022086EF91E09F938F930E9422010F900F908D
S11302300F900F90E114F10409F080CF011511051E
S113024051F67CCFA0E0B0E0E8E2F1E00C943A078C
S1130250AE014B5F5F4FFA0161917191AF018091E3
S1130260FC019091FD010E947E01E2E00C9456078E
S11302700F931F93CF93DF93E091FC01F091FD0165
S1130280238121FF1BC08C01D0E0C0E0F8018191E3
S11302908F016091FC017091FD01DB011896ED91D5
S11302A0FC911997882331F00995892B79F3DFEFB5
S11302B0CFEFECCF8AE00995892B19F08FEF9FEFF0
S11302C002C08D2F9C2FDF91CF911F910F91089524
S11302D0A0E0B0E0EEE6F1E00C943A07AE014B5F2B
S11302E05F4FFA0161917191AF018091FA01909190
S11302F0FB010E94FB04E2E00C945607ABE0B0E083
S1130300E4E8F1E00C942A076C017B018A01FC010A
S113031017821682838181FFCCC1CE0101963C01F4
S1130320F6019381F70193FD859193FF81917F01FC
S1130330882309F4BAC1853239F493FD859193FF7A
S113034081917F01853229F4B60190E00E94740600
S1130350E7CF912C212C312CFFE1F315D8F08B320F
S113036079F038F4803279F08332A1F4232D2061BE
S11303701DC08D3261F0803369F4232D216016C0D5
S1130380832D8260382EE32DE4603E2E2AC0F32DA7
S1130390F8601DC037FC2DC020ED280F2A3040F036
S11303A08E32B9F436FC81C1232D2064322E19C05B
S11303B036FE06C08AE0989E200D1124922E11C0AC
S11303C0EAE02E9E200D1124222EF32DF0623F2E02
S11303D008C08C3621F4832D8068382E02C08836FC
S11303E041F4F70193FD859193FF81917F01811180
S11303F0B3CF982F9F7D9554933028F40C5F1F4FF3
S11304009FE399830DC0833631F0833771F08335D0
S113041009F059C021C0F801808189830E5F1F4F04
S113042088248394912C530113C02801F2E04F0EC9
S1130430511CF801A080B18036FE03C0692D70E024
S113044002C06FEF7FEFC5010E942B064C018201B1
S1130450F32DFF773F2E16C0280122E0420E511CD7
S1130460F801A080B18036FE03C0692D70E002C09F
S11304706FEF7FEFC5010E9420064C01F32DF06859
S11304803F2E820133FC1BC0822D90E08816990612
S1130490B0F4B60180E290E00E9474062A94F4CF8E
S11304A0F50137FC859137FE81915F01B60190E03B
S11304B00E94740621102A9421E0821A9108811462
S11304C0910471F7E8C0843611F0893641F5F801DA
S11304D037FE07C060817181828193810C5F1F4F59
S11304E008C060817181072E000C880B990B0E5F88
S11304F01F4FF32DFF763F2E97FF09C090958095EF
S1130500709561957F4F8F4F9F4FF0683F2E2AE083
S113051030E0A3010E94C906882E861845C085379D
S113052031F4232D2F7EB22E2AE030E025C0932D06
S1130530997FB92E8F36C1F018F4883579F0B5C09B
S1130540803719F0883721F0B0C0E92FE061BE2E62
S1130550B4FE0DC0FB2DF460BF2E09C034FE0AC0EA
S1130560292F2660B22E06C028E030E005C020E125
S113057030E002C020E132E0F801B7FE07C060813C
S11305807181828193810C5F1F4F06C060817181EC
S113059080E090E00E5F1F4FA3010E94C906882EE1
S11305A08618FB2DFF773F2E36FE0DC0232D2E7FA0
S11305B0A22E891458F434FE0BC032FC09C0832DDA
S11305C08E7EA82E05C0B82CA32C03C0B82C01C065
S11305D0B92CA4FE0FC0FE01E80DF11D808180330B
S11305E021F49A2D997EA92E09C0A2FE06C0B394C7
S11305F0B39404C08A2D867809F0B394A3FC11C087
S1130600A0FE06C0B21488F4280C922C9B180EC0CD
S1130610B21460F4B60180E290E00E947406B394D0
S1130620F7CFB21418F42B1802C0982C212CA4FE76
S113063010C0B60180E390E00E947406A2FE17C0C9
S1130640A1FC03C088E790E002C088E590E0B60111
S11306500CC08A2D867859F0A1FE02C08BE201C03D
S113066080E2A7FC8DE2B60190E00E947406891432
S113067038F4B60180E390E00E9474069A94F7CFB0
S11306808A94F301E80DF11D8081B60190E00E9487
S113069074068110F5CF222009F442CEB60180E21F
S11306A090E00E9474062A94F6CFF6018681978121
S11306B002C08FEF9FEF2B96E2E10C94460720FDDA
S11306C009C0FC0123FD05C022FF02C073836283BD
S11306D051834083089544FD17C046FD17C0AB0104
S11306E0BC01DA01FB01AA0FBB1FEE1FFF1F109410
S11306F0D1F74A0F5B1F6E1F7F1FCB01BA01660F34
S1130700771F881F991F09C033E001C034E0660FCA
S1130710771F881F991F3150D1F7620F711D811DFA
S1130720911D08950F931F93CF93DF938C01C801FC
S11307300E943606EC0197FD08C00E940C06892B26
S1130740B1F7B801CE010E94B006CE01DF91CF917E
S11307501F910F9108958F929F92AF92BF92EF9243
S1130760FF920F931F93CF93DF938C01D62F7A01BF
S1130770B22E0E9436069C0133272B32310531F00C
S11307802D32310561F48B2D8068B82ED15011F4CF
S113079080E068C0C8010E94360697FDF9CFCB2DD2
S11307A0CD7F2B2D207309F58033F9F4AA24AA9464
S11307B0AD0E09F443C0C8010E94360697FD3EC041
S11307C09C012F7D33272835310549F4C264D2506A
S11307D0A9F1C8010E94360697FF07C02FC0B6FED4
S11307E002C0C26001C0C261DA2D812C912C540177
S11307F020ED280F283080F0C4FF04C0B8010E9407
S1130800B00619C02A3040F0C6FFF8CF2F7D3FEE66
S1130810320F363098F727504C2FC501B4010E948F
S11308206B034B015C01C260D15059F0C8010E94B6
S1130830360697FFDDCFC1FD04C0AACF812C912CD1
S11308405401C7FF08C0B094A09490948094811C74
S1130850911CA11CB11C2C2FB501A401C7010E943D
S11308605F0381E0DF91CF911F910F91FF90EF9093
S1130870BF90AF909F908F900895A0E2B0E0E3E422
S1130880F4E00C942D075C01962E7A01F9018E0197
S11308900F5F1F4F680180E2D8011D928A95E9F726
S11308A0D50113968C9080E090E0612C712C30E09F
S11308B061E070E083FC259183FE21918F01522E2B
S11308C0211103C080E090E092C02E3511F400970E
S11308D051F1432F50E0481759073CF42D3559F195
S11308E02D3219F4772009F103C0772009F46AC086
S11308F0452D469546954695D601A40FB11D452D27
S113090047708B0102C0000F111F4A95E2F7A8013E
S11309105C91452B4C93651459F0561410F4539480
S1130920E7CF5A94E5CF31E004C07724739401C033
S1130930712C0196BFCF772019F08E8180628E834F
S1130940311103C08824839417C0F6019E012F5DE2
S11309503F4F8081809581932E173F07D1F7F2CFC7
S1130960E114F10429F0D7018C93F70131967F014A
S11309709A94812C9920F9F0C5010E94360697FDBE
S113098018C0FC01FF2723E0F595E7952A95E1F7C8
S1130990EC0DFD1D208130E0AC014770552702C0ED
S11309A0359527954A95E2F720FDDACFB5010E94E7
S11309B0B006811087CFE114F10411F0D7011C9225
S11309C0C80115C0422F469546954695D601A40FF9
S11309D0B11D422F47708B0102C0000F111F4A95B1
S11309E0E2F7A8015C91452B4C93622EA2CFA0960E
S11309F0EFE00C944907A0E0B0E0E1E0F5E00C94EE
S1130A002D076C01EB015A01FC0117821682512C4F
S1130A10F601E380FE01E3FC8591E3FE8191182F4A
S1130A20EF01882309F4EEC090E00E940C06892BA4
S1130A3021F0C6010E949203EBCF153241F4FE016E
S1130A40E3FC1591E3FE1191EF01153281F4C60127
S1130A500E94360697FDD4C0412F50E09C013327F5
S1130A6024173507A9F2B6010E94B006CBC01A328A
S1130A7039F4E3FC1591E3FE1191EF0101E001C0AB
S1130A8000E0F12C20ED210F2A3080F402606F2D5C
S1130A9070E080E090E040E20E946B03F62EFE01DD
S1130AA0E3FC1591E3FE1191EF01ECCF01FF03C0CC
S1130AB0F11003C0A7C0FF24FA94183619F01C36AD
S1130AC051F010C0FE01E3FC1591E3FE1191EF011A
S1130AD0183641F408600460FE01E3FC1591E3FE5E
S1130AE01191EF01112309F48DC0612F70E088E6A4
S1130AF090E00E941506892B09F484C000FD07C00C
S1130B00F50180809180C50102965C0102C0812CB0
S1130B10912C1E3651F4F6014681578160E070E055
S1130B20202FC4010E945F0373CF1336A9F401FD83
S1130B3002C0FF24F394C6010E94360697FD60C0EC
S1130B408114910429F0F4018083C40101964C01BD
S1130B50FA94F110F0CF50C01B3559F49E01A40152
S1130B606F2DC6010E943D04EC01892B09F044C09D
S1130B703EC0C6010E94920397FD42C01F3661F138
S1130B8028F4143639F1193651F128C0133771F0AD
S1130B90153701F123C08114910429F0F401608216
S1130BA0C40101964C01FA94FF2071F0C6010E9421
S1130BB036063C0197FD08C00E940C06892B59F3A8
S1130BC0B601C3010E94B00681149104A9F0F40196
S1130BD0108212C0006203C0006101C00064202FB3
S1130BE0A4016F2DC6010E94AB03811105C0F6015B
S1130BF08381807329F406C000FD0ACF539408CF83
S1130C00552019F0852D90E002C08FEF9FEFCDB7EE
S1130C10DEB7EFE00C94490791110C94270780325A
S1130C2019F089508550C8F70895FC0105900616FF
S1130C3021F00020D9F7C00108953197CF0108951C
S1130C40FC010590615070400110D8F78095909593
S1130C508E0F9F1F0895FC01615070400190011098
S1130C60D8F7809590958E0F9F1F0895CF93DF93AB
S1130C70EC012B8120FF33C026FF0AC02F7B2B837E
S1130C808E819F8101969F838E838A8190E029C003
S1130C9022FF0FC0E881F9818081082E000C990B96
S1130CA0009719F420622B831AC03196F983E883E4
S1130CB00EC0EA85FB85099597FF09C02B81019633
S1130CC011F080E201C080E1822B8B8308C02E8169
S1130CD03F812F5F3F4F3F832E83992702C08FEFC1
S1130CE09FEFDF91CF9108950F931F93CF93DF93DD
S1130CF0FB01238121FD03C08FEF9FEF2CC022FF56
S1130D0016C046815781248135814217530744F424
S1130D10A081B1819D012F5F3F4F318320838C934C
S1130D20268137812F5F3F4F3783268314C08B0181
S1130D30EC01FB010084F185E02D0995892BE1F696
S1130D40D80116968D919C911797019617969C93AE
S1130D508E931697CE01DF91CF911F910F91089535
S1130D60FB01238120FF12C026FD10C08F3F3FEFFF
S1130D70930761F082832F7D20642383268137814A
S1130D802150310937832683992708958FEF9FEFE8
S1130D900895FA01AA27283051F1203181F1E8940D
S1130DA06F936E7F6E5F7F4F8F4F9F4FAF4FB1E05A
S1130DB03ED0B4E03CD0670F781F891F9A1FA11D55
S1130DC0680F791F8A1F911DA11D6A0F711D811D56
S1130DD0911DA11D20D009F468943F912AE0269F1B
S1130DE011243019305D3193DEF6CF010895462F7A
S1130DF04770405D4193B3E00FD0C9F7F6CF462F5B
S1130E004F70405D4A3318F0495D31FD40524193C3
S1130E1002D0A9F7EACFB4E0A69597958795779580
S1130E206795BA95C9F700976105710508959B0107
S1130E30AC010A2E06945795479537952795BA9590
S1130E40C9F7620F731F841F951FA01D089599276A
S1130E50882708952F923F924F925F926F927F92CC
S1130E608F929F92AF92BF92CF92DF92EF92FF92B6
S1130E700F931F93CF93DF93CDB7DEB7CA1BDB0B62
S1130E800FB6F894DEBF0FBECDBF09942A88398807
S1130E9048885F846E847D848C849B84AA84B9840E
S1130EA0C884DF80EE80FD800C811B81AA81B9811A
S1130EB0CE0FD11D0FB6F894DEBF0FBECDBFED012E
S1090EC00895F894FFCF31
S1130EC600000001000000000000620000000000B5
S1130ED600020000000059000000000057656C6322
S1130EE66F6D6520746F2074686520584D2D3233FC
S1130EF62045787465726E616C20436C6F636B2059
S1130F06436F6E74726F6C20536F6674776172658B
S1130F160053656C6563742027632720746F20650E
S1130F266E74657220636F6E74696E756F75732067
S1130F3672756E6E696E67206D6F64650053656CBD
S1130F466563742027732720746F20656E74657239
S1130F5620737465702072756E6E696E67206D6F8E
S1130F66646500496E20737465702072756E6E69CF
S1130F766E67206D6F64653A2030203D206C6F7774
S1130F862C2031203D20686967682C2035203D20BF
S1130F967377697463682072756E6E696E67206D07
S1130FA66F64650053656C656374696F6E3A2000FF
S10D0FB625730025640025640A0079
S9030000FC
